S015000046697273745F506F726A6563742E73726563D1
S11300000C942A000C943C000C943C000C943C008E
S11300100C943C000C943C000C943C000C943C006C
S11300200C943C000C943C000C943C000C943C005C
S11300300C943C000C943C000C943C000C943C004C
S11300400C943C000C943C000C943C000C943C003C
S11300500C943C0011241FBECFE5D8E0DEBFCDBF19
S113006020E0A0E6B0E001C01D92A136B207E1F79E
S11300700E946E000C94C7010C94000060E083E4BD
S11300800E94620060E081E40E945B00089540E603
S113009050E060E081E40E945F0080916000813064
S11300A029F460E083E40E946600089560E083E43C
S11300B00E946A00089540E00E94730008950E941F
S11300C06301089541E00E947300089541E00E9495
S11300D0EB00089540E00E94EB0008950E943E006A
S11300E00E944700FDCF823429F118F4813439F09D
S11300F008958334D1F1843409F452C00895413011
S113010059F42AB381E090E002C0880F991F6A95E0
S1130110E2F7822B8ABB089541115CC02AB381E0C7
S113012090E002C0880F991F6A95E2F780958223B8
S11301308ABB0895413059F427B381E090E002C0AE
S1130140880F991F6A95E2F7822B87BB08954111A6
S113015041C027B381E090E002C0880F991F6A95DF
S1130160E2F78095822387BB0895413059F424B384
S113017081E090E002C0880F991F6A95E2F7822B14
S113018084BB0895411126C024B381E090E002C0ED
S1130190880F991F6A95E2F78095822384BB08959E
S11301A0413059F421B381E090E002C0880F991FD7
S11301B06A95E2F7822B81BB089541110BC021B3EC
S11301C081E090E002C0880F991F6A95E2F780955C
S11301D0822381BB0895823429F118F4813439F0E3
S11301E008958334D1F1843409F452C00895413020
S11301F059F42BB381E090E002C0880F991F6A95EF
S1130200E2F7822B8BBB089541115CC02BB381E0D4
S113021090E002C0880F991F6A95E2F780958223C7
S11302208BBB0895413059F428B381E090E002C0BB
S1130230880F991F6A95E2F7822B88BB08954111B4
S113024041C028B381E090E002C0880F991F6A95ED
S1130250E2F78095822388BB0895413059F425B391
S113026081E090E002C0880F991F6A95E2F7822B23
S113027085BB0895411126C025B381E090E002C0FA
S1130280880F991F6A95E2F78095822385BB0895AC
S1130290413059F422B381E090E002C0880F991FE5
S11302A06A95E2F7822B82BB089541110BC022B3F9
S11302B081E090E002C0880F991F6A95E2F780956B
S11302C0822382BB0895823401F118F4813439F019
S11302D00895833481F1843409F443C0089579B3D3
S11302E081E090E09C01062E02C0220F331F0A9485
S11302F0E2F7872F90E08223932302C09595879598
S11303006A95E2F7FA018083089576B381E090E07C
S11303109C01062E02C0220F331F0A94E2F7872F96
S113032090E08223932302C0959587956A95E2F71E
S1130330FA018083089573B381E090E09C01062E56
S113034002C0220F331F0A94E2F7872F90E0822322
S1130350932302C0959587956A95E2F7FA01808305
S1130360089570B381E090E09C01062E02C0220F34
S1130370331F0A94E2F7872F90E08223932302C06D
S1130380959587956A95E2F7FA0180830895F89424
S1050390FFCF99
S9030000FC
