:100000000C942A000C9434000C9434000C943400AA
:100010000C9434000C9434000C9434000C94340090
:100020000C9434000C9434000C9434000C94340080
:100030000C9434000C9434000C9434000C94340070
:100040000C9434000C9434000C9434000C94340060
:100050000C94340011241FBECFE5D8E0DEBFCDBF25
:100060000E943D000C94F5000C94000041E00E94B9
:10007000460008950E94BE00089560E083E40E9457
:10008000360060E083E40E943A00FBCF823429F11D
:1000900018F4813439F008958334D1F1843409F4AB
:1000A00052C00895413059F42AB381E090E002C073
:1000B000880F991F6A95E2F7822B8ABB0895411138
:1000C0005CC02AB381E090E002C0880F991F6A9556
:1000D000E2F7809582238ABB0895413059F427B313
:1000E00081E090E002C0880F991F6A95E2F7822BA9
:1000F00087BB0895411141C027B381E090E002C061
:10010000880F991F6A95E2F78095822387BB08952F
:10011000413059F424B381E090E002C0880F991F68
:100120006A95E2F7822B84BB0895411126C024B35F
:1001300081E090E002C0880F991F6A95E2F78095F0
:10014000822384BB0895413059F421B381E090E0CB
:1001500002C0880F991F6A95E2F7822B81BB089530
:1001600041110BC021B381E090E002C0880F991FBC
:100170006A95E2F78095822381BB08958234A1F0CD
:1001800018F4813431F008958334C9F0843411F1C6
:1001900008952BB381E090E002C0880F991F6A9503
:1001A000E2F782278BBB089528B381E090E002C07C
:1001B000880F991F6A95E2F7822788BB089525B3B7
:1001C00081E090E002C0880F991F6A95E2F78227CC
:1001D00085BB089522B381E090E002C0880F991F8B
:0E01E0006A95E2F7822782BB0895F894FFCF5C
:00000001FF
