:100000000C942A000C9434000C9434000C943400AA
:100010000C9434000C9434000C9434000C94340090
:100020000C9434000C9434000C9434000C94340080
:100030000C9434000C9434000C9434000C94340070
:100040000C9434000C9434000C9434000C94340060
:100050000C94340011241FBECFE5D8E0DEBFCDBF25
:100060000E9428010C9433010C940000823431F179
:1000700018F4813439F008958334E1F1843409F4BB
:1000800054C0089541110BC02AB381E090E002C032
:10009000880F991F6A95E2F7822B8ABB0895413039
:1000A00009F05DC02AB381E090E002C0880F991F7B
:1000B0006A95E2F7809582238ABB089541110BC0AF
:1000C00027B381E090E002C0880F991F6A95E2F79C
:1000D000822B87BB0895413009F041C027B381E0EE
:1000E00090E002C0880F991F6A95E2F780958223FD
:1000F00087BB089541110BC024B381E090E002C09A
:10010000880F991F6A95E2F7822B84BB08954130CE
:1001100031F524B381E090E002C0880F991F6A9501
:10012000E2F78095822384BB089541110BC021B36F
:1001300081E090E002C0880F991F6A95E2F7822B58
:1001400081BB0895413059F421B381E090E002C0B1
:10015000880F991F6A95E2F78095822381BB0895E5
:10016000823429F118F4813439F008958334D1F1BF
:10017000843409F452C00895413059F42BB381E01E
:1001800090E002C0880F991F6A95E2F7822B8BBB23
:10019000089541115CC02BB381E090E002C0880F4C
:1001A000991F6A95E2F7809582238BBB08954130B1
:1001B00059F428B381E090E002C0880F991F6A9536
:1001C000E2F7822B88BB0895411141C028B381E03A
:1001D00090E002C0880F991F6A95E2F7809582230C
:1001E00088BB0895413059F425B381E090E002C006
:1001F000880F991F6A95E2F7822B85BB08954111FC
:1002000026C025B381E090E002C0880F991F6A954F
:10021000E2F78095822385BB0895413059F422B3DB
:1002200081E090E002C0880F991F6A95E2F7822B67
:1002300082BB089541110BC022B381E090E002C05F
:10024000880F991F6A95E2F78095822382BB0895F3
:1002500040E060E081E40E94360041E060E081E43B
:0A0260000E94B000FACFF894FFCF1F
:00000001FF
